:1000000045C0000060C000005EC000005CC0000091
:100010005AC0000058C0000056C0000054C0000084
:1000200052C0000050C000004EC000004CC0000094
:100030004AC0000048C0000046C0000044C00000A4
:1000400042C0000040C000003EC000003CC00000B4
:100050003AC0000038C0000036C0000034C00000C4
:1000600032C0000030C000002EC000002CC00000D4
:100070002AC0000028C0000026C0000024C00000E4
:1000800022C0000020C000001EC0000011241FBEBE
:10009000CFEFD0E1DEBFCDBF11E0A0E0B1E0E6EAF6
:1000A000FAE000E00BBF02C007900D92A036B10746
:1000B000D9F721E0A0E6B1E001C01D92A436B20755
:1000C000E1F750D3EEC49CCF672B09F0DFC0009757
:1000D00021F48BB38E7F8BBB08958130910521F481
:1000E0008BB38D7F8BBB08958230910521F48BB348
:1000F0008B7F8BBB08958330910521F48BB3877F71
:100100008BBB08958430910521F48BB38F7E8BBB1C
:1001100008958530910521F48BB38F7D8BBB0895B5
:100120008630910521F48BB38F7B8BBB089587308C
:10013000910521F48BB38F778BBB08958A3091059D
:1001400021F488B38E7F88BB08958B30910521F40C
:1001500088B38D7F88BB08958C30910521F488B3D6
:100160008B7F88BB08958D30910521F488B3877FFC
:1001700088BB08958E30910521F488B38F7E88BBAB
:1001800008958F30910521F488B38F7D88BB089541
:100190008031910521F488B38F7B88BB089581312C
:1001A000910521F488B38F7788BB08958431910538
:1001B00021F485B38E7F85BB08958531910521F4A7
:1001C00085B38D7F85BB08958631910521F485B374
:1001D0008B7F85BB08958731910521F485B3877F97
:1001E00085BB08958831910521F485B38F7E85BB49
:1001F00008958931910521F485B38F7D85BB0895DC
:100200008A31910521F485B38F7B85BB08958B31AD
:10021000910521F485B38F7785BB08958E319105C3
:1002200021F482B38E7F82BB08958F31910521F432
:1002300082B38D7F82BB08958032910521F482B311
:100240008B7F82BB08958132910521F482B3877F31
:1002500082BB08958232910521F482B38F7E82BBE6
:1002600008958332910521F482B38F7D82BB089576
:100270008432910521F482B38F7B82BB08958597E8
:1002800009F0E1C082B38F7782BB0895009721F413
:100290008BB381608BBB08958130910521F48BB3C2
:1002A00082608BBB08958230910521F48BB384600A
:1002B0008BBB08958330910521F48BB388608BBB91
:1002C00008958430910521F48BB380618BBB089530
:1002D0008530910521F48BB380628BBB0895863005
:1002E000910521F48BB380648BBB08958730910511
:1002F00021F48BB380688BBB08958A30910521F47B
:1003000088B3816088BB08958B30910521F488B350
:10031000826088BB08958C30910521F488B3846095
:1003200088BB08958D30910521F488B3886088BB1F
:1003300008958E30910521F488B3806188BB0895BB
:100340008F30910521F488B3806288BB0895803195
:10035000910521F488B3806488BB089581319105AB
:1003600021F488B3806888BB08958431910521F415
:1003700085B3816085BB08958531910521F485B3EE
:10038000826085BB08958631910521F485B3846030
:1003900085BB08958731910521F485B3886085BBBD
:1003A00008958831910521F485B3806185BB089556
:1003B0008931910521F485B3806285BB08958A3126
:1003C000910521F485B3806485BB08958B31910537
:1003D00021F485B3806885BB08958E31910521F4A1
:1003E00082B3816082BB08958F31910521F482B37D
:1003F000826082BB08958032910521F482B38460CB
:1004000082BB08958132910521F482B3886082BB5A
:1004100008958232910521F482B3806182BB0895F0
:100420008332910521F482B3806282BB08958432C5
:10043000910521F482B3806482BB0895859719F4F5
:1004400082B3806882BB0895CF93C82F80FF06C017
:1004500061E070E08EE090E037DE05C060E070E0C3
:100460008EE090E031DEC1FF06C061E070E08FE019
:1004700090E02ADE05C060E070E08FE090E024DECE
:10048000C2FF06C061E070E080E190E01DDE05C0C3
:1004900060E070E080E190E017DEC3FF06C061E03D
:1004A00070E081E190E010DE05C060E070E081E185
:1004B00090E00ADECF910895CF93C82F60E070E0FE
:1004C0008CE090E001DE8C2FBFDF61E070E08DE01A
:1004D00090E0FADD8FE99FE00197F1F700C000009E
:1004E00060E070E08DE090E0EFDD8FE99FE0019744
:1004F000F1F700C00000CF91089580E0DDDF81E0DA
:10050000DBCF0895CF93813051F480E8860FC62F5A
:10051000CF7082958F70D0DF8C2FCEDF0BC08230F2
:1005200049F480EC860FC62FCF7082958F70C4DFA0
:100530008C2FC2DFCF91089580E086DF2FEF89EF07
:1005400090E0215080409040E1F700C0000083E03F
:10055000B3DF8FE19EE40197F1F700C0000083E074
:10056000ABDF8FED9BEA0197F1F700C0000083E05D
:10057000A3DF82E0A1DF82E09FDF88E09DDF80E0F3
:100580009BDF8CE099DF80E097DF86E095CF0895D0
:10059000CF93DF93D82FDF70C82FC07F61E070E06A
:1005A0008CE090E091DD8C2F82958F704DDF61E0C3
:1005B00070E08DE090E088DD8FE99FE00197F1F732
:1005C00000C0000060E070E08DE090E07DDD8FE92C
:1005D0009FE00197F1F700C000008D2F35DF61E04B
:1005E00070E08DE090E070DD8FE99FE00197F1F71A
:1005F00000C0000060E070E08DE090E065DD8FE914
:100600009FE00197F1F700C00000DF91CF910895BE
:100610000F931F93CF93DF938C01C0E0D0E002C013
:10062000B7DF2196F801EC0FFD1F80818111F8CF13
:10063000DF91CF911F910F9108952091600130912A
:1006400061012F70332730936101209360012E30B8
:10065000310559F4E0916201F0916301EE0FFF1F43
:10066000EE0FFF1FE050FF4F80812D30310559F410
:10067000E0916201F0916301EE0FFF1FEE0FFF1F8B
:10068000E050FF4F81812B30310559F4E091620138
:10069000F0916301EE0FFF1FEE0FFF1FE050FF4FC1
:1006A00082812730310559F4E0916201F0916301B4
:1006B000EE0FFF1FEE0FFF1FE050FF4F83810895E5
:1006C00020B330E030936101209360012F30310579
:1006D000B9F39FEE92BB20B330E0309361012093D9
:1006E00060012F3E310529F01092630110926201E2
:1006F000A4DF9FED92BB20B330E0309361012093E3
:1007000060012F3D310539F081E090E09093630165
:100710008093620192DF9FEB92BB20B330E0309375
:100720006101209360012F3B310539F082E090E0B8
:10073000909363018093620180DF9FE792BB20B3B7
:1007400030E030936101209360012F37310539F09B
:1007500083E090E090936301809362016EDF9FE0FD
:1007600092BB0895CF93DF93CDB7DEB7CC58D109B4
:100770000FB6F894DEBF0FBECDBF8FEF87BBDCDEB8
:1007800080EF81BB8FE082BB84E1FE013196DF0107
:10079000282F1D922A95E9F77496DF01282F1D92C4
:1007A0002A95E9F77496DF011D928A95E9F700E032
:1007B00010E0A12CB12CC12C6BC081E1E0E1F1E093
:1007C000DE01A758BF4F01900D928A95E1F7E9E746
:1007D000F0E0EC0FFD1F719683E0DF011D928A951A
:1007E000E9F761E081E08EDECE0187589F4F10DF90
:1007F00001151105B9F464DFC82E4AE0BE016F5F30
:100800007F4F90E01BD161E082E07CDECE0101965B
:10081000FFDEBFEF29E688E1B15020408040E1F7DC
:1008200000C0000001301105B9F44ADFB82E4AE0DB
:10083000BE016B5E7F4F90E001D164E082E062DE3A
:10084000CE014596E5DE9FEFA9E6B8E19150A040C4
:10085000B040E1F700C0000002301105B9F430DF0C
:10086000A82E4AE0BE01675D7F4F90E0E7D067E0C9
:1008700082E048DECE018996CBDE2FEF89E698E153
:10088000215080409040E1F700C000000F5F1F4FF3
:10089000033011050CF491CFAFEFB3ED20E3A1507D
:1008A000B0402040E1F700C0000027DEFE01FD96C9
:1008B00084E1DF011D928A95E9F78AE28DAF8BE032
:1008C000E4E2F1E0DE01AF5ABF4F01900D928A954C
:1008D000E1F7E1E5F0E0EC0FFD1F3B9689E0DF0179
:1008E0001D928A95E9F78AE0E8E3F1E0DE01AB5971
:1008F000BF4F01900D928A95E1F7E5E6F0E0EC0F2D
:10090000FD1F3A968AE0DF011D928A95E9F781E1A1
:10091000ECE4F1E0DE01A758BF4F01900D928A95FB
:10092000E1F7E9E7F0E0EC0FFD1F719683E0DF01EE
:100930001D928A95E9F761E081E0E4DDCE018758F8
:100940009F4F66DE00E010E0D12CE12CF12C3EC080
:100950000115110589F4B4DEF82E61E082E0D2DDE4
:10096000CE01CD9655DEBFEF29E688E1B15020409B
:100970008040E1F700C000000130110589F4A0DEDD
:10098000E82E63E082E0BEDDCE01CD9641DE9FEF32
:10099000A9E6B8E19150A040B040E1F700C00000E6
:1009A0000230110589F48CDED82E65E082E0AADDE4
:1009B000CE01CD962DDE2FEF89E698E121508040C3
:1009C0009040E1F700C000000F5F1F4F033011059A
:1009D0000CF4BECFAFEFB9E628E1A150B040204003
:1009E000E1F700C0000089DDCF1016C0BE1014C0B2
:1009F000AD1012C061E081E085DDCE018F5A9F4FBE
:100A000007DE8FEF97EAA1E681509040A040E1F722
:100A100000C0000072DD7BCF61E081E073DDCE01BC
:100A20008B599F4FF5DDBFEF27EA81E6B15020409B
:100A30008040E1F700C0000060DD69CFBB274A308D
:100A400031F4992322F4BDE2909581959F4F01C026
:100A5000BB27FB015527AA27880F991FAA1FA41798
:100A600010F0A41B83955051B9F7A05DAA3308F08C
:100A7000A95DA193009779F7B111B1931192CB01C0
:100A800000C0DC01FC01672F71917723E1F73297F9
:100A900004C07C916D9370836291AE17BF07C8F359
:060AA0000895F894FFCF59
:100AA6000102030405060708090A0B0C0D0E0F10B8
:100AB600456E7465722033206469676974733A20E1
:100AC60000000000434F52524543542021210000AC
:100AD6000000000000000000494E434F52524543BB
:100AE6005400000000000000000000004775657318
:100AF600732033206469676974733A20000000002C
:00000001FF
